{
  "_format": "hh-sol-artifact-1",
  "contractName": "CrowdFunding",
  "sourceName": "contracts/CrowdFunding.sol",
  "abi": [
    {
      "inputs": [
        {
          "internalType": "uint8",
          "name": "_platformTax",
          "type": "uint8"
        }
      ],
      "stateMutability": "nonpayable",
      "type": "constructor"
    },
    {
      "inputs": [
        {
          "internalType": "uint256",
          "name": "campaingDeadline",
          "type": "uint256"
        },
        {
          "internalType": "uint256",
          "name": "requestTime",
          "type": "uint256"
        }
      ],
      "name": "DeadLine",
      "type": "error"
    },
    {
      "inputs": [
        {
          "internalType": "uint256",
          "name": "minAmount",
          "type": "uint256"
        },
        {
          "internalType": "uint256",
          "name": "payedAmount",
          "type": "uint256"
        }
      ],
      "name": "LowEtherAmount",
      "type": "error"
    },
    {
      "anonymous": false,
      "inputs": [
        {
          "indexed": false,
          "internalType": "uint256",
          "name": "id",
          "type": "uint256"
        },
        {
          "indexed": false,
          "internalType": "string",
          "name": "actionType",
          "type": "string"
        },
        {
          "indexed": true,
          "internalType": "address",
          "name": "executor",
          "type": "address"
        },
        {
          "indexed": false,
          "internalType": "uint256",
          "name": "timestamp",
          "type": "uint256"
        }
      ],
      "name": "Action",
      "type": "event"
    },
    {
      "anonymous": false,
      "inputs": [
        {
          "indexed": false,
          "internalType": "bool",
          "name": "State",
          "type": "bool"
        }
      ],
      "name": "ContractStateChanged",
      "type": "event"
    },
    {
      "anonymous": false,
      "inputs": [
        {
          "indexed": true,
          "internalType": "address",
          "name": "previousOwner",
          "type": "address"
        },
        {
          "indexed": true,
          "internalType": "address",
          "name": "newOwner",
          "type": "address"
        }
      ],
      "name": "OwnershipTransferred",
      "type": "event"
    },
    {
      "inputs": [
        {
          "internalType": "uint256",
          "name": "",
          "type": "uint256"
        }
      ],
      "name": "campaigns",
      "outputs": [
        {
          "internalType": "address",
          "name": "owner",
          "type": "address"
        },
        {
          "internalType": "bool",
          "name": "payedOut",
          "type": "bool"
        },
        {
          "internalType": "string",
          "name": "title",
          "type": "string"
        },
        {
          "internalType": "string",
          "name": "category",
          "type": "string"
        },
        {
          "internalType": "string",
          "name": "description",
          "type": "string"
        },
        {
          "internalType": "uint256",
          "name": "target",
          "type": "uint256"
        },
        {
          "internalType": "uint256",
          "name": "deadline",
          "type": "uint256"
        },
        {
          "internalType": "uint256",
          "name": "amountCollected",
          "type": "uint256"
        },
        {
          "internalType": "string",
          "name": "image",
          "type": "string"
        }
      ],
      "stateMutability": "view",
      "type": "function"
    },
    {
      "inputs": [],
      "name": "changeContractState",
      "outputs": [],
      "stateMutability": "nonpayable",
      "type": "function"
    },
    {
      "inputs": [
        {
          "internalType": "uint8",
          "name": "_platformTax",
          "type": "uint8"
        }
      ],
      "name": "changeTax",
      "outputs": [],
      "stateMutability": "nonpayable",
      "type": "function"
    },
    {
      "inputs": [
        {
          "internalType": "address",
          "name": "_owner",
          "type": "address"
        },
        {
          "internalType": "string",
          "name": "_title",
          "type": "string"
        },
        {
          "internalType": "string",
          "name": "_category",
          "type": "string"
        },
        {
          "internalType": "string",
          "name": "_description",
          "type": "string"
        },
        {
          "internalType": "uint256",
          "name": "_target",
          "type": "uint256"
        },
        {
          "internalType": "uint256",
          "name": "_deadline",
          "type": "uint256"
        },
        {
          "internalType": "string",
          "name": "_image",
          "type": "string"
        }
      ],
      "name": "createCampaign",
      "outputs": [
        {
          "internalType": "uint256",
          "name": "",
          "type": "uint256"
        }
      ],
      "stateMutability": "nonpayable",
      "type": "function"
    },
    {
      "inputs": [
        {
          "internalType": "uint256",
          "name": "_id",
          "type": "uint256"
        }
      ],
      "name": "deleteCampaign",
      "outputs": [
        {
          "internalType": "bool",
          "name": "",
          "type": "bool"
        }
      ],
      "stateMutability": "nonpayable",
      "type": "function"
    },
    {
      "inputs": [
        {
          "internalType": "uint256",
          "name": "_id",
          "type": "uint256"
        }
      ],
      "name": "donateToCampaign",
      "outputs": [],
      "stateMutability": "payable",
      "type": "function"
    },
    {
      "inputs": [],
      "name": "emergencyMode",
      "outputs": [
        {
          "internalType": "bool",
          "name": "",
          "type": "bool"
        }
      ],
      "stateMutability": "view",
      "type": "function"
    },
    {
      "inputs": [],
      "name": "getCampaigns",
      "outputs": [
        {
          "components": [
            {
              "internalType": "address",
              "name": "owner",
              "type": "address"
            },
            {
              "internalType": "bool",
              "name": "payedOut",
              "type": "bool"
            },
            {
              "internalType": "string",
              "name": "title",
              "type": "string"
            },
            {
              "internalType": "string",
              "name": "category",
              "type": "string"
            },
            {
              "internalType": "string",
              "name": "description",
              "type": "string"
            },
            {
              "internalType": "uint256",
              "name": "target",
              "type": "uint256"
            },
            {
              "internalType": "uint256",
              "name": "deadline",
              "type": "uint256"
            },
            {
              "internalType": "uint256",
              "name": "amountCollected",
              "type": "uint256"
            },
            {
              "internalType": "string",
              "name": "image",
              "type": "string"
            },
            {
              "internalType": "address[]",
              "name": "donators",
              "type": "address[]"
            },
            {
              "internalType": "uint256[]",
              "name": "donations",
              "type": "uint256[]"
            }
          ],
          "internalType": "struct CrowdFunding.Campaign[]",
          "name": "",
          "type": "tuple[]"
        }
      ],
      "stateMutability": "view",
      "type": "function"
    },
    {
      "inputs": [
        {
          "internalType": "uint256",
          "name": "_id",
          "type": "uint256"
        }
      ],
      "name": "getDonators",
      "outputs": [
        {
          "internalType": "address[]",
          "name": "",
          "type": "address[]"
        },
        {
          "internalType": "uint256[]",
          "name": "",
          "type": "uint256[]"
        }
      ],
      "stateMutability": "view",
      "type": "function"
    },
    {
      "inputs": [
        {
          "internalType": "uint256",
          "name": "_id",
          "type": "uint256"
        }
      ],
      "name": "haltCampaign",
      "outputs": [],
      "stateMutability": "nonpayable",
      "type": "function"
    },
    {
      "inputs": [],
      "name": "numberOfCampaigns",
      "outputs": [
        {
          "internalType": "uint24",
          "name": "",
          "type": "uint24"
        }
      ],
      "stateMutability": "view",
      "type": "function"
    },
    {
      "inputs": [],
      "name": "owner",
      "outputs": [
        {
          "internalType": "address",
          "name": "",
          "type": "address"
        }
      ],
      "stateMutability": "view",
      "type": "function"
    },
    {
      "inputs": [
        {
          "internalType": "uint256",
          "name": "_id",
          "type": "uint256"
        }
      ],
      "name": "payOutToCampaignTeam",
      "outputs": [
        {
          "internalType": "bool",
          "name": "",
          "type": "bool"
        }
      ],
      "stateMutability": "nonpayable",
      "type": "function"
    },
    {
      "inputs": [],
      "name": "platformTax",
      "outputs": [
        {
          "internalType": "uint8",
          "name": "",
          "type": "uint8"
        }
      ],
      "stateMutability": "view",
      "type": "function"
    },
    {
      "inputs": [],
      "name": "renounceOwnership",
      "outputs": [],
      "stateMutability": "nonpayable",
      "type": "function"
    },
    {
      "inputs": [
        {
          "internalType": "address",
          "name": "newOwner",
          "type": "address"
        }
      ],
      "name": "transferOwnership",
      "outputs": [],
      "stateMutability": "nonpayable",
      "type": "function"
    },
    {
      "inputs": [
        {
          "internalType": "uint256",
          "name": "_id",
          "type": "uint256"
        },
        {
          "internalType": "string",
          "name": "_title",
          "type": "string"
        },
        {
          "internalType": "string",
          "name": "_category",
          "type": "string"
        },
        {
          "internalType": "string",
          "name": "_description",
          "type": "string"
        },
        {
          "internalType": "uint256",
          "name": "_target",
          "type": "uint256"
        },
        {
          "internalType": "uint256",
          "name": "_deadline",
          "type": "uint256"
        },
        {
          "internalType": "string",
          "name": "_image",
          "type": "string"
        }
      ],
      "name": "updateCampaign",
      "outputs": [
        {
          "internalType": "bool",
          "name": "",
          "type": "bool"
        }
      ],
      "stateMutability": "nonpayable",
      "type": "function"
    },
    {
      "inputs": [
        {
          "internalType": "uint256",
          "name": "_startId",
          "type": "uint256"
        },
        {
          "internalType": "uint256",
          "name": "_endId",
          "type": "uint256"
        }
      ],
      "name": "withdrawFunds",
      "outputs": [],
      "stateMutability": "nonpayable",
      "type": "function"
    }
  ],
  "bytecode": "0x60806040523480156200001157600080fd5b5060405162003c7f38038062003c7f833981810160405281019062000037919062000188565b620000576200004b6200007960201b60201c565b6200008160201b60201c565b80600260006101000a81548160ff021916908360ff16021790555050620001ba565b600033905090565b60008060009054906101000a900473ffffffffffffffffffffffffffffffffffffffff169050816000806101000a81548173ffffffffffffffffffffffffffffffffffffffff021916908373ffffffffffffffffffffffffffffffffffffffff1602179055508173ffffffffffffffffffffffffffffffffffffffff168173ffffffffffffffffffffffffffffffffffffffff167f8be0079c531659141344cd1fd0a4f28419497f9722a3daafe3b4186f6b6457e060405160405180910390a35050565b600080fd5b600060ff82169050919050565b62000162816200014a565b81146200016e57600080fd5b50565b600081519050620001828162000157565b92915050565b600060208284031215620001a157620001a062000145565b5b6000620001b18482850162000171565b91505092915050565b613ab580620001ca6000396000f3fe6080604052600436106101095760003560e01c80637597019311610095578063a79f928d11610064578063a79f928d14610352578063b2fabdb01461038f578063d9acef5f146103ba578063e5253105146103f7578063f2fde38b1461042057610109565b806375970193146102825780638da5cb5b146102bf5780639943e3a1146102ea578063a6b036331461032757610109565b8063141961bc116100dc578063141961bc146101cb5780633857a5ac1461020f57806342a4fda8146102265780634cf291d614610242578063715018a61461026b57610109565b806307ca140d1461010e5780630905f560146101395780630e8676b9146101645780630fa91fa91461018d575b600080fd5b34801561011a57600080fd5b50610123610449565b60405161013091906121a8565b60405180910390f35b34801561014557600080fd5b5061014e61045e565b60405161015b91906121de565b60405180910390f35b34801561017057600080fd5b5061018b60048036038101906101869190612243565b610471565b005b34801561019957600080fd5b506101b460048036038101906101af9190612243565b6104e7565b6040516101c292919061241e565b60405180910390f35b3480156101d757600080fd5b506101f260048036038101906101ed9190612243565b6105f9565b604051610206989796959493929190612503565b60405180910390f35b34801561021b57600080fd5b50610224610806565b005b610240600480360381019061023b9190612243565b610880565b005b34801561024e57600080fd5b50610269600480360381019061026491906125cf565b610bbd565b005b34801561027757600080fd5b50610280610be3565b005b34801561028e57600080fd5b506102a960048036038101906102a49190612243565b610bf7565b6040516102b691906121de565b60405180910390f35b3480156102cb57600080fd5b506102d4610e3b565b6040516102e191906125fc565b60405180910390f35b3480156102f657600080fd5b50610311600480360381019061030c9190612778565b610e64565b60405161031e9190612859565b60405180910390f35b34801561033357600080fd5b5061033c611087565b6040516103499190612b63565b60405180910390f35b34801561035e57600080fd5b5061037960048036038101906103749190612b85565b6114a1565b60405161038691906121de565b60405180910390f35b34801561039b57600080fd5b506103a46116e0565b6040516103b19190612c75565b60405180910390f35b3480156103c657600080fd5b506103e160048036038101906103dc9190612243565b6116f3565b6040516103ee91906121de565b60405180910390f35b34801561040357600080fd5b5061041e60048036038101906104199190612c90565b611920565b005b34801561042c57600080fd5b5061044760048036038101906104429190612cd0565b611970565b005b600260019054906101000a900462ffffff1681565b600260049054906101000a900460ff1681565b6104796119f3565b4260016000838152602001908152602001600020600401819055503373ffffffffffffffffffffffffffffffffffffffff167faee8e5d3bbb2f71a951b5632cee20f7ac487b9f8ab4f66a236f7694b13af7c6a82426040516104dc929190612d49565b60405180910390a250565b60608060016000848152602001908152602001600020600701600160008581526020019081526020016000206008018180548060200260200160405190810160405280929190818152602001828054801561059757602002820191906000526020600020905b8160009054906101000a900473ffffffffffffffffffffffffffffffffffffffff1673ffffffffffffffffffffffffffffffffffffffff168152602001906001019080831161054d575b50505050509150808054806020026020016040519081016040528092919081815260200182805480156105e957602002820191906000526020600020905b8154815260200190600101908083116105d5575b5050505050905091509150915091565b60016020528060005260406000206000915090508060000160009054906101000a900473ffffffffffffffffffffffffffffffffffffffff16908060000160149054906101000a900460ff169080600101805461065590612db4565b80601f016020809104026020016040519081016040528092919081815260200182805461068190612db4565b80156106ce5780601f106106a3576101008083540402835291602001916106ce565b820191906000526020600020905b8154815290600101906020018083116106b157829003601f168201915b5050505050908060020180546106e390612db4565b80601f016020809104026020016040519081016040528092919081815260200182805461070f90612db4565b801561075c5780601f106107315761010080835404028352916020019161075c565b820191906000526020600020905b81548152906001019060200180831161073f57829003601f168201915b50505050509080600301549080600401549080600501549080600601805461078390612db4565b80601f01602080910402602001604051908101604052809291908181526020018280546107af90612db4565b80156107fc5780601f106107d1576101008083540402835291602001916107fc565b820191906000526020600020905b8154815290600101906020018083116107df57829003601f168201915b5050505050905088565b61080e6119f3565b600260049054906101000a900460ff1615600260046101000a81548160ff0219169083151502179055507f2cde22acc8fd53a00979e46849e256a19250dc0d6626358410d5a4ee27ad6c79600260049054906101000a900460ff1660405161087691906121de565b60405180910390a1565b600260049054906101000a900460ff161561089a57600080fd5b600034036108e2576001346040517f8351d9170000000000000000000000000000000000000000000000000000000081526004016108d9929190612e2a565b60405180910390fd5b6000600160008381526020019081526020016000209050600115156001600084815260200190815260200160002060000160149054906101000a900460ff16151503610963576040517f08c379a000000000000000000000000000000000000000000000000000000000815260040161095a90612e9f565b60405180910390fd5b600073ffffffffffffffffffffffffffffffffffffffff168160000160009054906101000a900473ffffffffffffffffffffffffffffffffffffffff1673ffffffffffffffffffffffffffffffffffffffff16116109f6576040517f08c379a00000000000000000000000000000000000000000000000000000000081526004016109ed90612f0b565b60405180910390fd5b4281600401541015610a57576001600083815260200190815260200160002060040154426040517f02277f12000000000000000000000000000000000000000000000000000000008152600401610a4e929190612f2b565b60405180910390fd5b6000349050610a73818360050154611a7190919063ffffffff16565b82600501541115610ab9576040517f08c379a0000000000000000000000000000000000000000000000000000000008152600401610ab090612fa0565b60405180910390fd5b610ad0818360050154611a7190919063ffffffff16565b826005018190555081600701339080600181540180825580915050600190039060005260206000200160009091909190916101000a81548173ffffffffffffffffffffffffffffffffffffffff021916908373ffffffffffffffffffffffffffffffffffffffff160217905550816008018190806001815401808255809150506001900390600052602060002001600090919091909150553373ffffffffffffffffffffffffffffffffffffffff167faee8e5d3bbb2f71a951b5632cee20f7ac487b9f8ab4f66a236f7694b13af7c6a8442604051610bb092919061300c565b60405180910390a2505050565b610bc56119f3565b80600260006101000a81548160ff021916908360ff16021790555050565b610beb6119f3565b610bf56000611a87565b565b600081610c0381611b4b565b600260049054906101000a900460ff1615610c1d57600080fd5b600073ffffffffffffffffffffffffffffffffffffffff166001600085815260200190815260200160002060000160009054906101000a900473ffffffffffffffffffffffffffffffffffffffff1673ffffffffffffffffffffffffffffffffffffffff1611610cc2576040517f08c379a0000000000000000000000000000000000000000000000000000000008152600401610cb990612f0b565b60405180910390fd5b600060016000858152602001908152602001600020600501541115610ceb57610cea83611c2f565b5b60016000848152602001908152602001600020600080820160006101000a81549073ffffffffffffffffffffffffffffffffffffffff02191690556000820160146101000a81549060ff0219169055600182016000610d4a9190612080565b600282016000610d5a9190612080565b600382016000905560048201600090556005820160009055600682016000610d829190612080565b600782016000610d9291906120c0565b600882016000610da291906120e1565b50503373ffffffffffffffffffffffffffffffffffffffff167faee8e5d3bbb2f71a951b5632cee20f7ac487b9f8ab4f66a236f7694b13af7c6a8442604051610dec929190613094565b60405180910390a26001600260018282829054906101000a900462ffffff16610e1591906130ff565b92506101000a81548162ffffff021916908362ffffff1602179055506001915050919050565b60008060009054906101000a900473ffffffffffffffffffffffffffffffffffffffff16905090565b60008585858585610e788585858585611d10565b600260049054906101000a900460ff1615610e9257600080fd5b874210610ed4576040517f08c379a0000000000000000000000000000000000000000000000000000000008152600401610ecb90613182565b60405180910390fd5b600060016000600260019054906101000a900462ffffff1662ffffff16815260200190815260200160002090506002600181819054906101000a900462ffffff1680929190610f22906131a2565b91906101000a81548162ffffff021916908362ffffff160217905550508c8160000160006101000a81548173ffffffffffffffffffffffffffffffffffffffff021916908373ffffffffffffffffffffffffffffffffffffffff1602179055508b816001019081610f93919061336f565b508a816002019081610fa5919061336f565b508981600301819055508881600401819055506000816005018190555087816006019081610fd3919061336f565b5060008160000160146101000a81548160ff0219169083151502179055503373ffffffffffffffffffffffffffffffffffffffff167faee8e5d3bbb2f71a951b5632cee20f7ac487b9f8ab4f66a236f7694b13af7c6a600260019054906101000a900462ffffff164260405161104a9291906134be565b60405180910390a26001600260019054906101000a900462ffffff1661107091906130ff565b62ffffff1696505050505050509695505050505050565b60606000600260019054906101000a900462ffffff1662ffffff1667ffffffffffffffff8111156110bb576110ba61264d565b5b6040519080825280602002602001820160405280156110f457816020015b6110e1612102565b8152602001906001900390816110d95790505b50905060005b600260019054906101000a900462ffffff1662ffffff1681101561149957600060016000838152602001908152602001600020905080604051806101400160405290816000820160009054906101000a900473ffffffffffffffffffffffffffffffffffffffff1673ffffffffffffffffffffffffffffffffffffffff1673ffffffffffffffffffffffffffffffffffffffff1681526020016000820160149054906101000a900460ff161515151581526020016001820180546111bd90612db4565b80601f01602080910402602001604051908101604052809291908181526020018280546111e990612db4565b80156112365780601f1061120b57610100808354040283529160200191611236565b820191906000526020600020905b81548152906001019060200180831161121957829003601f168201915b5050505050815260200160028201805461124f90612db4565b80601f016020809104026020016040519081016040528092919081815260200182805461127b90612db4565b80156112c85780601f1061129d576101008083540402835291602001916112c8565b820191906000526020600020905b8154815290600101906020018083116112ab57829003601f168201915b505050505081526020016003820154815260200160048201548152602001600582015481526020016006820180546112ff90612db4565b80601f016020809104026020016040519081016040528092919081815260200182805461132b90612db4565b80156113785780601f1061134d57610100808354040283529160200191611378565b820191906000526020600020905b81548152906001019060200180831161135b57829003601f168201915b505050505081526020016007820180548060200260200160405190810160405280929190818152602001828054801561140657602002820191906000526020600020905b8160009054906101000a900473ffffffffffffffffffffffffffffffffffffffff1673ffffffffffffffffffffffffffffffffffffffff16815260200190600101908083116113bc575b505050505081526020016008820180548060200260200160405190810160405280929190818152602001828054801561145e57602002820191906000526020600020905b81548152602001906001019080831161144a575b50505050508152505083838151811061147a576114796134fa565b5b602002602001018190525050808061149190613529565b9150506110fa565b508091505090565b6000866114ad81611b4b565b86868686866114bf8585858585611d10565b600260049054906101000a900460ff16156114d957600080fd5b88421061151b576040517f08c379a000000000000000000000000000000000000000000000000000000000815260040161151290613182565b60405180910390fd5b6000600160008f81526020019081526020016000209050600073ffffffffffffffffffffffffffffffffffffffff168160000160009054906101000a900473ffffffffffffffffffffffffffffffffffffffff1673ffffffffffffffffffffffffffffffffffffffff16116115c5576040517f08c379a00000000000000000000000000000000000000000000000000000000081526004016115bc90612f0b565b60405180910390fd5b600081600501541461160c576040517f08c379a0000000000000000000000000000000000000000000000000000000008152600401611603906135bd565b60405180910390fd5b8c81600101908161161d919061336f565b508b81600201908161162f919061336f565b508a8160030181905550898160040181905550600081600501819055508881600601908161165d919061336f565b5060008160000160146101000a81548160ff0219169083151502179055503373ffffffffffffffffffffffffffffffffffffffff167faee8e5d3bbb2f71a951b5632cee20f7ac487b9f8ab4f66a236f7694b13af7c6a8f426040516116c3929190613629565b60405180910390a260019750505050505050509695505050505050565b600260009054906101000a900460ff1681565b6000816116ff81611b4b565b600260049054906101000a900460ff161561171957600080fd5b600115156001600085815260200190815260200160002060000160149054906101000a900460ff16151503611783576040517f08c379a000000000000000000000000000000000000000000000000000000000815260040161177a90612e9f565b60405180910390fd5b61178b610e3b565b73ffffffffffffffffffffffffffffffffffffffff163373ffffffffffffffffffffffffffffffffffffffff1614611831574260016000858152602001908152602001600020600401541115611830576001600084815260200190815260200160002060040154426040517f02277f12000000000000000000000000000000000000000000000000000000008152600401611827929190612f2b565b60405180910390fd5b5b600180600085815260200190815260200160002060000160146101000a81548160ff02191690831515021790555060008061186b85611d8d565b915091506118ba6001600087815260200190815260200160002060000160009054906101000a900473ffffffffffffffffffffffffffffffffffffffff1682846118b59190613665565b611de6565b506118c481611e68565b3373ffffffffffffffffffffffffffffffffffffffff167faee8e5d3bbb2f71a951b5632cee20f7ac487b9f8ab4f66a236f7694b13af7c6a864260405161190c9291906136e5565b60405180910390a260019350505050919050565b6119286119f3565b600260049054906101000a900460ff1661194157600080fd5b60008290505b81811161196b576119588383611e7d565b808061196390613529565b915050611947565b505050565b6119786119f3565b600073ffffffffffffffffffffffffffffffffffffffff168173ffffffffffffffffffffffffffffffffffffffff16036119e7576040517f08c379a00000000000000000000000000000000000000000000000000000000081526004016119de90613793565b60405180910390fd5b6119f081611a87565b50565b6119fb612078565b73ffffffffffffffffffffffffffffffffffffffff16611a19610e3b565b73ffffffffffffffffffffffffffffffffffffffff1614611a6f576040517f08c379a0000000000000000000000000000000000000000000000000000000008152600401611a66906137ff565b60405180910390fd5b565b60008183611a7f919061381f565b905092915050565b60008060009054906101000a900473ffffffffffffffffffffffffffffffffffffffff169050816000806101000a81548173ffffffffffffffffffffffffffffffffffffffff021916908373ffffffffffffffffffffffffffffffffffffffff1602179055508173ffffffffffffffffffffffffffffffffffffffff168173ffffffffffffffffffffffffffffffffffffffff167f8be0079c531659141344cd1fd0a4f28419497f9722a3daafe3b4186f6b6457e060405160405180910390a35050565b6001600082815260200190815260200160002060000160009054906101000a900473ffffffffffffffffffffffffffffffffffffffff1673ffffffffffffffffffffffffffffffffffffffff163373ffffffffffffffffffffffffffffffffffffffff161480611bed5750611bbe610e3b565b73ffffffffffffffffffffffffffffffffffffffff163373ffffffffffffffffffffffffffffffffffffffff16145b611c2c576040517f08c379a0000000000000000000000000000000000000000000000000000000008152600401611c239061389f565b60405180910390fd5b50565b60008060016000848152602001908152602001600020905060005b8160070180549050811015611d0057816008018181548110611c6f57611c6e6134fa565b5b906000526020600020015492506000826008018281548110611c9457611c936134fa565b5b9060005260206000200181905550611cec826007018281548110611cbb57611cba6134fa565b5b9060005260206000200160009054906101000a900473ffffffffffffffffffffffffffffffffffffffff1684611de6565b508080611cf890613529565b915050611c4a565b5060008160050181905550505050565b60008551118015611d22575060008451115b8015611d2e5750600083115b8015611d3a5750600082115b8015611d47575060008151115b611d86576040517f08c379a0000000000000000000000000000000000000000000000000000000008152600401611d7d9061390b565b60405180910390fd5b5050505050565b60008060006001600085815260200190815260200160002060050154905060006064600260009054906101000a900460ff1660ff1683611dcd919061392b565b611dd7919061399c565b90508181935093505050915091565b6000808373ffffffffffffffffffffffffffffffffffffffff1683604051611e0d906139fe565b60006040518083038185875af1925050503d8060008114611e4a576040519150601f19603f3d011682016040523d82523d6000602084013e611e4f565b606091505b5050905080611e5d57600080fd5b600191505092915050565b611e79611e73610e3b565b82611de6565b5050565b808210611ebf576040517f08c379a0000000000000000000000000000000000000000000000000000000008152600401611eb690613a5f565b60405180910390fd5b600073ffffffffffffffffffffffffffffffffffffffff166001600083815260200190815260200160002060000160009054906101000a900473ffffffffffffffffffffffffffffffffffffffff1673ffffffffffffffffffffffffffffffffffffffff1611611f64576040517f08c379a0000000000000000000000000000000000000000000000000000000008152600401611f5b90612f0b565b60405180910390fd5b6000808390505b82811015612072576000600160008381526020019081526020016000209050600081600701805490509050600081111561205d5760005b8181101561205157826008018181548110611fc057611fbf6134fa565b5b906000526020600020015494506000836008018281548110611fe557611fe46134fa565b5b906000526020600020018190555061203d83600701828154811061200c5761200b6134fa565b5b9060005260206000200160009054906101000a900473ffffffffffffffffffffffffffffffffffffffff1686611de6565b50808061204990613529565b915050611fa2565b50600082600501819055505b5050808061206a90613529565b915050611f6b565b50505050565b600033905090565b50805461208c90612db4565b6000825580601f1061209e57506120bd565b601f0160209004906000526020600020908101906120bc919061216d565b5b50565b50805460008255906000526020600020908101906120de919061216d565b50565b50805460008255906000526020600020908101906120ff919061216d565b50565b604051806101400160405280600073ffffffffffffffffffffffffffffffffffffffff16815260200160001515815260200160608152602001606081526020016000815260200160008152602001600081526020016060815260200160608152602001606081525090565b5b8082111561218657600081600090555060010161216e565b5090565b600062ffffff82169050919050565b6121a28161218a565b82525050565b60006020820190506121bd6000830184612199565b92915050565b60008115159050919050565b6121d8816121c3565b82525050565b60006020820190506121f360008301846121cf565b92915050565b6000604051905090565b600080fd5b600080fd5b6000819050919050565b6122208161220d565b811461222b57600080fd5b50565b60008135905061223d81612217565b92915050565b60006020828403121561225957612258612203565b5b60006122678482850161222e565b91505092915050565b600081519050919050565b600082825260208201905092915050565b6000819050602082019050919050565b600073ffffffffffffffffffffffffffffffffffffffff82169050919050565b60006122c78261229c565b9050919050565b6122d7816122bc565b82525050565b60006122e983836122ce565b60208301905092915050565b6000602082019050919050565b600061230d82612270565b612317818561227b565b93506123228361228c565b8060005b8381101561235357815161233a88826122dd565b9750612345836122f5565b925050600181019050612326565b5085935050505092915050565b600081519050919050565b600082825260208201905092915050565b6000819050602082019050919050565b6123958161220d565b82525050565b60006123a7838361238c565b60208301905092915050565b6000602082019050919050565b60006123cb82612360565b6123d5818561236b565b93506123e08361237c565b8060005b838110156124115781516123f8888261239b565b9750612403836123b3565b9250506001810190506123e4565b5085935050505092915050565b600060408201905081810360008301526124388185612302565b9050818103602083015261244c81846123c0565b90509392505050565b61245e816122bc565b82525050565b600081519050919050565b600082825260208201905092915050565b60005b8381101561249e578082015181840152602081019050612483565b60008484015250505050565b6000601f19601f8301169050919050565b60006124c682612464565b6124d0818561246f565b93506124e0818560208601612480565b6124e9816124aa565b840191505092915050565b6124fd8161220d565b82525050565b600061010082019050612519600083018b612455565b612526602083018a6121cf565b818103604083015261253881896124bb565b9050818103606083015261254c81886124bb565b905061255b60808301876124f4565b61256860a08301866124f4565b61257560c08301856124f4565b81810360e083015261258781846124bb565b90509998505050505050505050565b600060ff82169050919050565b6125ac81612596565b81146125b757600080fd5b50565b6000813590506125c9816125a3565b92915050565b6000602082840312156125e5576125e4612203565b5b60006125f3848285016125ba565b91505092915050565b60006020820190506126116000830184612455565b92915050565b612620816122bc565b811461262b57600080fd5b50565b60008135905061263d81612617565b92915050565b600080fd5b600080fd5b7f4e487b7100000000000000000000000000000000000000000000000000000000600052604160045260246000fd5b612685826124aa565b810181811067ffffffffffffffff821117156126a4576126a361264d565b5b80604052505050565b60006126b76121f9565b90506126c3828261267c565b919050565b600067ffffffffffffffff8211156126e3576126e261264d565b5b6126ec826124aa565b9050602081019050919050565b82818337600083830152505050565b600061271b612716846126c8565b6126ad565b90508281526020810184848401111561273757612736612648565b5b6127428482856126f9565b509392505050565b600082601f83011261275f5761275e612643565b5b813561276f848260208601612708565b91505092915050565b60008060008060008060c0878903121561279557612794612203565b5b60006127a389828a0161262e565b965050602087013567ffffffffffffffff8111156127c4576127c3612208565b5b6127d089828a0161274a565b955050604087013567ffffffffffffffff8111156127f1576127f0612208565b5b6127fd89828a0161274a565b945050606061280e89828a0161222e565b935050608061281f89828a0161222e565b92505060a087013567ffffffffffffffff8111156128405761283f612208565b5b61284c89828a0161274a565b9150509295509295509295565b600060208201905061286e60008301846124f4565b92915050565b600081519050919050565b600082825260208201905092915050565b6000819050602082019050919050565b6128a9816121c3565b82525050565b600082825260208201905092915050565b60006128cb82612464565b6128d581856128af565b93506128e5818560208601612480565b6128ee816124aa565b840191505092915050565b600082825260208201905092915050565b600061291582612270565b61291f81856128f9565b935061292a8361228c565b8060005b8381101561295b57815161294288826122dd565b975061294d836122f5565b92505060018101905061292e565b5085935050505092915050565b600082825260208201905092915050565b600061298482612360565b61298e8185612968565b93506129998361237c565b8060005b838110156129ca5781516129b1888261239b565b97506129bc836123b3565b92505060018101905061299d565b5085935050505092915050565b6000610140830160008301516129f060008601826122ce565b506020830151612a0360208601826128a0565b5060408301518482036040860152612a1b82826128c0565b91505060608301518482036060860152612a3582826128c0565b9150506080830151612a4a608086018261238c565b5060a0830151612a5d60a086018261238c565b5060c0830151612a7060c086018261238c565b5060e083015184820360e0860152612a8882826128c0565b915050610100830151848203610100860152612aa4828261290a565b915050610120830151848203610120860152612ac08282612979565b9150508091505092915050565b6000612ad983836129d7565b905092915050565b6000602082019050919050565b6000612af982612874565b612b03818561287f565b935083602082028501612b1585612890565b8060005b85811015612b515784840389528151612b328582612acd565b9450612b3d83612ae1565b925060208a01995050600181019050612b19565b50829750879550505050505092915050565b60006020820190508181036000830152612b7d8184612aee565b905092915050565b60008060008060008060c08789031215612ba257612ba1612203565b5b6000612bb089828a0161222e565b965050602087013567ffffffffffffffff811115612bd157612bd0612208565b5b612bdd89828a0161274a565b955050604087013567ffffffffffffffff811115612bfe57612bfd612208565b5b612c0a89828a0161274a565b9450506060612c1b89828a0161222e565b9350506080612c2c89828a0161222e565b92505060a087013567ffffffffffffffff811115612c4d57612c4c612208565b5b612c5989828a0161274a565b9150509295509295509295565b612c6f81612596565b82525050565b6000602082019050612c8a6000830184612c66565b92915050565b60008060408385031215612ca757612ca6612203565b5b6000612cb58582860161222e565b9250506020612cc68582860161222e565b9150509250929050565b600060208284031215612ce657612ce5612203565b5b6000612cf48482850161262e565b91505092915050565b7f43616d706169676e2068616c7465640000000000000000000000000000000000600082015250565b6000612d33600f8361246f565b9150612d3e82612cfd565b602082019050919050565b6000606082019050612d5e60008301856124f4565b8181036020830152612d6f81612d26565b9050612d7e60408301846124f4565b9392505050565b7f4e487b7100000000000000000000000000000000000000000000000000000000600052602260045260246000fd5b60006002820490506001821680612dcc57607f821691505b602082108103612ddf57612dde612d85565b5b50919050565b6000819050919050565b6000819050919050565b6000612e14612e0f612e0a84612de5565b612def565b61220d565b9050919050565b612e2481612df9565b82525050565b6000604082019050612e3f6000830185612e1b565b612e4c60208301846124f4565b9392505050565b7f46756e64732077697468647261776564206265666f7265000000000000000000600082015250565b6000612e8960178361246f565b9150612e9482612e53565b602082019050919050565b60006020820190508181036000830152612eb881612e7c565b9050919050565b7f4e6f2063616d706169676e206578697374207769746820746869732049440000600082015250565b6000612ef5601e8361246f565b9150612f0082612ebf565b602082019050919050565b60006020820190508181036000830152612f2481612ee8565b9050919050565b6000604082019050612f4060008301856124f4565b612f4d60208301846124f4565b9392505050565b7f54617267657420616d6f756e7420686173207265616368656400000000000000600082015250565b6000612f8a60198361246f565b9150612f9582612f54565b602082019050919050565b60006020820190508181036000830152612fb981612f7d565b9050919050565b7f446f6e6174696f6e20546f205468652043616d706169676e0000000000000000600082015250565b6000612ff660188361246f565b915061300182612fc0565b602082019050919050565b600060608201905061302160008301856124f4565b818103602083015261303281612fe9565b905061304160408301846124f4565b9392505050565b7f43616d706169676e2044656c6574656400000000000000000000000000000000600082015250565b600061307e60108361246f565b915061308982613048565b602082019050919050565b60006060820190506130a960008301856124f4565b81810360208301526130ba81613071565b90506130c960408301846124f4565b9392505050565b7f4e487b7100000000000000000000000000000000000000000000000000000000600052601160045260246000fd5b600061310a8261218a565b91506131158361218a565b9250828203905062ffffff8111156131305761312f6130d0565b5b92915050565b7f446561646c696e65206d75737420626520696e20746865206675747572650000600082015250565b600061316c601e8361246f565b915061317782613136565b602082019050919050565b6000602082019050818103600083015261319b8161315f565b9050919050565b60006131ad8261218a565b915062ffffff82036131c2576131c16130d0565b5b600182019050919050565b60008190508160005260206000209050919050565b60006020601f8301049050919050565b600082821b905092915050565b60006008830261322f7fffffffffffffffffffffffffffffffffffffffffffffffffffffffffffffffff826131f2565b61323986836131f2565b95508019841693508086168417925050509392505050565b600061326c6132676132628461220d565b612def565b61220d565b9050919050565b6000819050919050565b61328683613251565b61329a61329282613273565b8484546131ff565b825550505050565b600090565b6132af6132a2565b6132ba81848461327d565b505050565b5b818110156132de576132d36000826132a7565b6001810190506132c0565b5050565b601f821115613323576132f4816131cd565b6132fd846131e2565b8101602085101561330c578190505b613320613318856131e2565b8301826132bf565b50505b505050565b600082821c905092915050565b600061334660001984600802613328565b1980831691505092915050565b600061335f8383613335565b9150826002028217905092915050565b61337882612464565b67ffffffffffffffff8111156133915761339061264d565b5b61339b8254612db4565b6133a68282856132e2565b600060209050601f8311600181146133d957600084156133c7578287015190505b6133d18582613353565b865550613439565b601f1984166133e7866131cd565b60005b8281101561340f578489015182556001820191506020850194506020810190506133ea565b8683101561342c5784890151613428601f891682613335565b8355505b6001600288020188555050505b505050505050565b600061345c6134576134528461218a565b612def565b61220d565b9050919050565b61346c81613441565b82525050565b7f43616d706169676e204372656174656400000000000000000000000000000000600082015250565b60006134a860108361246f565b91506134b382613472565b602082019050919050565b60006060820190506134d36000830185613463565b81810360208301526134e48161349b565b90506134f360408301846124f4565b9392505050565b7f4e487b7100000000000000000000000000000000000000000000000000000000600052603260045260246000fd5b60006135348261220d565b91507fffffffffffffffffffffffffffffffffffffffffffffffffffffffffffffffff8203613566576135656130d0565b5b600182019050919050565b7f557064617465206572726f723a20616d6f756e7420636f6c6c65637465640000600082015250565b60006135a7601e8361246f565b91506135b282613571565b602082019050919050565b600060208201905081810360008301526135d68161359a565b9050919050565b7f43616d706169676e205570646174656400000000000000000000000000000000600082015250565b600061361360108361246f565b915061361e826135dd565b602082019050919050565b600060608201905061363e60008301856124f4565b818103602083015261364f81613606565b905061365e60408301846124f4565b9392505050565b60006136708261220d565b915061367b8361220d565b9250828203905081811115613693576136926130d0565b5b92915050565b7f46756e6473205769746864726177616c00000000000000000000000000000000600082015250565b60006136cf60108361246f565b91506136da82613699565b602082019050919050565b60006060820190506136fa60008301856124f4565b818103602083015261370b816136c2565b905061371a60408301846124f4565b9392505050565b7f4f776e61626c653a206e6577206f776e657220697320746865207a65726f206160008201527f6464726573730000000000000000000000000000000000000000000000000000602082015250565b600061377d60268361246f565b915061378882613721565b604082019050919050565b600060208201905081810360008301526137ac81613770565b9050919050565b7f4f776e61626c653a2063616c6c6572206973206e6f7420746865206f776e6572600082015250565b60006137e960208361246f565b91506137f4826137b3565b602082019050919050565b60006020820190508181036000830152613818816137dc565b9050919050565b600061382a8261220d565b91506138358361220d565b925082820190508082111561384d5761384c6130d0565b5b92915050565b7f556e617574686f72697a656420456e7469747900000000000000000000000000600082015250565b600061388960138361246f565b915061389482613853565b602082019050919050565b600060208201905081810360008301526138b88161387c565b9050919050565b7f4e756c6c2076616c7565206e6f742061636365707461626c6500000000000000600082015250565b60006138f560198361246f565b9150613900826138bf565b602082019050919050565b60006020820190508181036000830152613924816138e8565b9050919050565b60006139368261220d565b91506139418361220d565b925082820261394f8161220d565b91508282048414831517613966576139656130d0565b5b5092915050565b7f4e487b7100000000000000000000000000000000000000000000000000000000600052601260045260246000fd5b60006139a78261220d565b91506139b28361220d565b9250826139c2576139c161396d565b5b828204905092915050565b600081905092915050565b50565b60006139e86000836139cd565b91506139f3826139d8565b600082019050919050565b6000613a09826139db565b9150819050919050565b7f496e76616c69642069642072616e676500000000000000000000000000000000600082015250565b6000613a4960108361246f565b9150613a5482613a13565b602082019050919050565b60006020820190508181036000830152613a7881613a3c565b905091905056fea264697066735822122023bb159faeb73caf70c005d0a99e7160fa8f757b1e25fe5638ff73bed97f995864736f6c63430008130033",
  "linkReferences": {},
  "deployedLinkReferences": {}
}